{
  "_format": "hh-sol-artifact-1",
  "contractName": "DealClient",
  "sourceName": "contracts/basic-deal-client/DealClient.sol",
  "abi": [
    {
      "inputs": [],
      "stateMutability": "nonpayable",
      "type": "constructor"
    },
    {
      "inputs": [
        {
          "internalType": "int256",
          "name": "errorCode",
          "type": "int256"
        }
      ],
      "name": "ActorError",
      "type": "error"
    },
    {
      "inputs": [],
      "name": "ActorNotFound",
      "type": "error"
    },
    {
      "inputs": [],
      "name": "FailToCallActor",
      "type": "error"
    },
    {
      "inputs": [],
      "name": "InvalidAddress",
      "type": "error"
    },
    {
      "inputs": [
        {
          "internalType": "uint64",
          "name": "",
          "type": "uint64"
        }
      ],
      "name": "InvalidCodec",
      "type": "error"
    },
    {
      "inputs": [],
      "name": "InvalidResponseLength",
      "type": "error"
    },
    {
      "inputs": [],
      "name": "NegativeValueNotAllowed",
      "type": "error"
    },
    {
      "inputs": [
        {
          "internalType": "uint256",
          "name": "balance",
          "type": "uint256"
        },
        {
          "internalType": "uint256",
          "name": "value",
          "type": "uint256"
        }
      ],
      "name": "NotEnoughBalance",
      "type": "error"
    },
    {
      "anonymous": false,
      "inputs": [
        {
          "indexed": true,
          "internalType": "bytes32",
          "name": "id",
          "type": "bytes32"
        },
        {
          "indexed": false,
          "internalType": "uint64",
          "name": "size",
          "type": "uint64"
        },
        {
          "indexed": true,
          "internalType": "bool",
          "name": "verified",
          "type": "bool"
        },
        {
          "indexed": false,
          "internalType": "uint256",
          "name": "price",
          "type": "uint256"
        }
      ],
      "name": "DealProposalCreate",
      "type": "event"
    },
    {
      "anonymous": false,
      "inputs": [
        {
          "indexed": false,
          "internalType": "string",
          "name": "received",
          "type": "string"
        }
      ],
      "name": "ReceivedDataCap",
      "type": "event"
    },
    {
      "inputs": [],
      "name": "AUTHENTICATE_MESSAGE_METHOD_NUM",
      "outputs": [
        {
          "internalType": "uint64",
          "name": "",
          "type": "uint64"
        }
      ],
      "stateMutability": "view",
      "type": "function"
    },
    {
      "inputs": [],
      "name": "DATACAP_ACTOR_ETH_ADDRESS",
      "outputs": [
        {
          "internalType": "address",
          "name": "",
          "type": "address"
        }
      ],
      "stateMutability": "view",
      "type": "function"
    },
    {
      "inputs": [],
      "name": "DATACAP_RECEIVER_HOOK_METHOD_NUM",
      "outputs": [
        {
          "internalType": "uint64",
          "name": "",
          "type": "uint64"
        }
      ],
      "stateMutability": "view",
      "type": "function"
    },
    {
      "inputs": [],
      "name": "MARKET_ACTOR_ETH_ADDRESS",
      "outputs": [
        {
          "internalType": "address",
          "name": "",
          "type": "address"
        }
      ],
      "stateMutability": "view",
      "type": "function"
    },
    {
      "inputs": [],
      "name": "MARKET_NOTIFY_DEAL_METHOD_NUM",
      "outputs": [
        {
          "internalType": "uint64",
          "name": "",
          "type": "uint64"
        }
      ],
      "stateMutability": "view",
      "type": "function"
    },
    {
      "inputs": [
        {
          "internalType": "uint256",
          "name": "value",
          "type": "uint256"
        }
      ],
      "name": "addBalance",
      "outputs": [],
      "stateMutability": "nonpayable",
      "type": "function"
    },
    {
      "inputs": [
        {
          "internalType": "bytes32",
          "name": "",
          "type": "bytes32"
        }
      ],
      "name": "dealRequestIdx",
      "outputs": [
        {
          "internalType": "uint256",
          "name": "idx",
          "type": "uint256"
        },
        {
          "internalType": "bool",
          "name": "valid",
          "type": "bool"
        }
      ],
      "stateMutability": "view",
      "type": "function"
    },
    {
      "inputs": [
        {
          "internalType": "uint256",
          "name": "",
          "type": "uint256"
        }
      ],
      "name": "dealRequests",
      "outputs": [
        {
          "internalType": "bytes",
          "name": "piece_cid",
          "type": "bytes"
        },
        {
          "internalType": "uint64",
          "name": "piece_size",
          "type": "uint64"
        },
        {
          "internalType": "bool",
          "name": "verified_deal",
          "type": "bool"
        },
        {
          "internalType": "string",
          "name": "label",
          "type": "string"
        },
        {
          "internalType": "int64",
          "name": "start_epoch",
          "type": "int64"
        },
        {
          "internalType": "int64",
          "name": "end_epoch",
          "type": "int64"
        },
        {
          "internalType": "uint256",
          "name": "storage_price_per_epoch",
          "type": "uint256"
        },
        {
          "internalType": "uint256",
          "name": "provider_collateral",
          "type": "uint256"
        },
        {
          "internalType": "uint256",
          "name": "client_collateral",
          "type": "uint256"
        },
        {
          "internalType": "uint64",
          "name": "extra_params_version",
          "type": "uint64"
        },
        {
          "components": [
            {
              "internalType": "string",
              "name": "location_ref",
              "type": "string"
            },
            {
              "internalType": "uint64",
              "name": "car_size",
              "type": "uint64"
            },
            {
              "internalType": "bool",
              "name": "skip_ipni_announce",
              "type": "bool"
            },
            {
              "internalType": "bool",
              "name": "remove_unsealed_copy",
              "type": "bool"
            }
          ],
          "internalType": "struct ExtraParamsV1",
          "name": "extra_params",
          "type": "tuple"
        }
      ],
      "stateMutability": "view",
      "type": "function"
    },
    {
      "inputs": [],
      "name": "dealsLength",
      "outputs": [
        {
          "internalType": "uint256",
          "name": "",
          "type": "uint256"
        }
      ],
      "stateMutability": "view",
      "type": "function"
    },
    {
      "inputs": [
        {
          "internalType": "uint256",
          "name": "index",
          "type": "uint256"
        }
      ],
      "name": "getDealByIndex",
      "outputs": [
        {
          "components": [
            {
              "internalType": "bytes",
              "name": "piece_cid",
              "type": "bytes"
            },
            {
              "internalType": "uint64",
              "name": "piece_size",
              "type": "uint64"
            },
            {
              "internalType": "bool",
              "name": "verified_deal",
              "type": "bool"
            },
            {
              "internalType": "string",
              "name": "label",
              "type": "string"
            },
            {
              "internalType": "int64",
              "name": "start_epoch",
              "type": "int64"
            },
            {
              "internalType": "int64",
              "name": "end_epoch",
              "type": "int64"
            },
            {
              "internalType": "uint256",
              "name": "storage_price_per_epoch",
              "type": "uint256"
            },
            {
              "internalType": "uint256",
              "name": "provider_collateral",
              "type": "uint256"
            },
            {
              "internalType": "uint256",
              "name": "client_collateral",
              "type": "uint256"
            },
            {
              "internalType": "uint64",
              "name": "extra_params_version",
              "type": "uint64"
            },
            {
              "components": [
                {
                  "internalType": "string",
                  "name": "location_ref",
                  "type": "string"
                },
                {
                  "internalType": "uint64",
                  "name": "car_size",
                  "type": "uint64"
                },
                {
                  "internalType": "bool",
                  "name": "skip_ipni_announce",
                  "type": "bool"
                },
                {
                  "internalType": "bool",
                  "name": "remove_unsealed_copy",
                  "type": "bool"
                }
              ],
              "internalType": "struct ExtraParamsV1",
              "name": "extra_params",
              "type": "tuple"
            }
          ],
          "internalType": "struct DealRequest",
          "name": "",
          "type": "tuple"
        }
      ],
      "stateMutability": "view",
      "type": "function"
    },
    {
      "inputs": [
        {
          "internalType": "bytes32",
          "name": "proposalId",
          "type": "bytes32"
        }
      ],
      "name": "getDealProposal",
      "outputs": [
        {
          "internalType": "bytes",
          "name": "",
          "type": "bytes"
        }
      ],
      "stateMutability": "view",
      "type": "function"
    },
    {
      "inputs": [
        {
          "internalType": "bytes32",
          "name": "proposalId",
          "type": "bytes32"
        }
      ],
      "name": "getExtraParams",
      "outputs": [
        {
          "internalType": "bytes",
          "name": "extra_params",
          "type": "bytes"
        }
      ],
      "stateMutability": "view",
      "type": "function"
    },
    {
      "inputs": [
        {
          "internalType": "bytes",
          "name": "cid",
          "type": "bytes"
        }
      ],
      "name": "getProposalIdSet",
      "outputs": [
        {
          "components": [
            {
              "internalType": "bytes32",
              "name": "requestId",
              "type": "bytes32"
            },
            {
              "internalType": "bool",
              "name": "valid",
              "type": "bool"
            }
          ],
          "internalType": "struct RequestId",
          "name": "",
          "type": "tuple"
        }
      ],
      "stateMutability": "view",
      "type": "function"
    },
    {
      "inputs": [
        {
          "internalType": "bytes",
          "name": "cid",
          "type": "bytes"
        }
      ],
      "name": "getProviderSet",
      "outputs": [
        {
          "components": [
            {
              "internalType": "bytes",
              "name": "provider",
              "type": "bytes"
            },
            {
              "internalType": "bool",
              "name": "valid",
              "type": "bool"
            }
          ],
          "internalType": "struct ProviderSet",
          "name": "",
          "type": "tuple"
        }
      ],
      "stateMutability": "view",
      "type": "function"
    },
    {
      "inputs": [
        {
          "internalType": "uint64",
          "name": "method",
          "type": "uint64"
        },
        {
          "internalType": "uint64",
          "name": "",
          "type": "uint64"
        },
        {
          "internalType": "bytes",
          "name": "params",
          "type": "bytes"
        }
      ],
      "name": "handle_filecoin_method",
      "outputs": [
        {
          "internalType": "uint32",
          "name": "",
          "type": "uint32"
        },
        {
          "internalType": "uint64",
          "name": "",
          "type": "uint64"
        },
        {
          "internalType": "bytes",
          "name": "",
          "type": "bytes"
        }
      ],
      "stateMutability": "nonpayable",
      "type": "function"
    },
    {
      "inputs": [
        {
          "components": [
            {
              "internalType": "bytes",
              "name": "piece_cid",
              "type": "bytes"
            },
            {
              "internalType": "uint64",
              "name": "piece_size",
              "type": "uint64"
            },
            {
              "internalType": "bool",
              "name": "verified_deal",
              "type": "bool"
            },
            {
              "internalType": "string",
              "name": "label",
              "type": "string"
            },
            {
              "internalType": "int64",
              "name": "start_epoch",
              "type": "int64"
            },
            {
              "internalType": "int64",
              "name": "end_epoch",
              "type": "int64"
            },
            {
              "internalType": "uint256",
              "name": "storage_price_per_epoch",
              "type": "uint256"
            },
            {
              "internalType": "uint256",
              "name": "provider_collateral",
              "type": "uint256"
            },
            {
              "internalType": "uint256",
              "name": "client_collateral",
              "type": "uint256"
            },
            {
              "internalType": "uint64",
              "name": "extra_params_version",
              "type": "uint64"
            },
            {
              "components": [
                {
                  "internalType": "string",
                  "name": "location_ref",
                  "type": "string"
                },
                {
                  "internalType": "uint64",
                  "name": "car_size",
                  "type": "uint64"
                },
                {
                  "internalType": "bool",
                  "name": "skip_ipni_announce",
                  "type": "bool"
                },
                {
                  "internalType": "bool",
                  "name": "remove_unsealed_copy",
                  "type": "bool"
                }
              ],
              "internalType": "struct ExtraParamsV1",
              "name": "extra_params",
              "type": "tuple"
            }
          ],
          "internalType": "struct DealRequest",
          "name": "deal",
          "type": "tuple"
        }
      ],
      "name": "makeDealProposal",
      "outputs": [
        {
          "internalType": "bytes32",
          "name": "",
          "type": "bytes32"
        }
      ],
      "stateMutability": "nonpayable",
      "type": "function"
    },
    {
      "inputs": [],
      "name": "owner",
      "outputs": [
        {
          "internalType": "address",
          "name": "",
          "type": "address"
        }
      ],
      "stateMutability": "view",
      "type": "function"
    },
    {
      "inputs": [
        {
          "internalType": "bytes",
          "name": "",
          "type": "bytes"
        }
      ],
      "name": "pieceDeals",
      "outputs": [
        {
          "internalType": "uint64",
          "name": "",
          "type": "uint64"
        }
      ],
      "stateMutability": "view",
      "type": "function"
    },
    {
      "inputs": [
        {
          "internalType": "bytes",
          "name": "",
          "type": "bytes"
        }
      ],
      "name": "pieceProviders",
      "outputs": [
        {
          "internalType": "bytes",
          "name": "provider",
          "type": "bytes"
        },
        {
          "internalType": "bool",
          "name": "valid",
          "type": "bool"
        }
      ],
      "stateMutability": "view",
      "type": "function"
    },
    {
      "inputs": [
        {
          "internalType": "bytes",
          "name": "",
          "type": "bytes"
        }
      ],
      "name": "pieceRequests",
      "outputs": [
        {
          "internalType": "bytes32",
          "name": "requestId",
          "type": "bytes32"
        },
        {
          "internalType": "bool",
          "name": "valid",
          "type": "bool"
        }
      ],
      "stateMutability": "view",
      "type": "function"
    },
    {
      "inputs": [
        {
          "internalType": "bytes",
          "name": "",
          "type": "bytes"
        }
      ],
      "name": "pieceStatus",
      "outputs": [
        {
          "internalType": "enum DealClient.Status",
          "name": "",
          "type": "uint8"
        }
      ],
      "stateMutability": "view",
      "type": "function"
    },
    {
      "inputs": [
        {
          "internalType": "bytes",
          "name": "pieceCid",
          "type": "bytes"
        }
      ],
      "name": "updateActivationStatus",
      "outputs": [],
      "stateMutability": "nonpayable",
      "type": "function"
    },
    {
      "inputs": [
        {
          "internalType": "address",
          "name": "client",
          "type": "address"
        },
        {
          "internalType": "uint256",
          "name": "value",
          "type": "uint256"
        }
      ],
      "name": "withdrawBalance",
      "outputs": [
        {
          "internalType": "uint256",
          "name": "",
          "type": "uint256"
        }
      ],
      "stateMutability": "nonpayable",
      "type": "function"
    }
  ],
  "bytecode": "0x608060405234801561001057600080fd5b50600680546001600160a01b0319163317905561592f80620000336000396000f3fe608060405234801561001057600080fd5b506004361061018c5760003560e01c8063868e10c4116100e3578063be965ce71161008c578063f44a890311610066578063f44a890314610426578063f4b2e4d814610446578063f82704f01461045957600080fd5b8063be965ce7146103e5578063d91921ed14610400578063dd27fe901461041357600080fd5b8063a6d1b7b8116100bd578063a6d1b7b81461036d578063b34ba252146103b0578063bad79de9146103bb57600080fd5b8063868e10c4146103185780638da5cb5b1461033a57806396925ae61461034d57600080fd5b806329aa3d2a116101455780636067f4541161011f5780636067f454146102d857806366263735146102e357806378133bb2146102f857600080fd5b806329aa3d2a146102515780634634aed5146102795780634e8a3ca41461029957600080fd5b80630cf20cc9116101765780630cf20cc9146101ee5780631adf7eb11461020e578063297ab4861461024957600080fd5b8062706790146101915780630a0e0c91146101b2575b600080fd5b61019c639d8b067881565b6040516101a99190613cc2565b60405180910390f35b61019c6101c0366004613dc8565b600481805160208101820180518482526020830160208501209152546001600160401b031693508492505050565b6102016101fc366004613e43565b61047a565b6040516101a99190613e86565b61023b61021c366004613e94565b6000602052806000526040600020805460019091015490915060ff1682565b6040516101a9929190613ebd565b600154610201565b61026c73ff0000000000000000000000000000000000000581565b6040516101a99190613ee1565b61028c610287366004613e94565b61050b565b6040516101a99190613f4b565b61023b6102a7366004613dc8565b600281805160208101820180518482526020830160208501209152805460019091015490945060ff16925084915050565b61019c63f98c996681565b6102f66102f1366004613dc8565b61052f565b005b61030b610306366004613fa6565b610620565b6040516101a99190614019565b61032b610326366004614044565b610710565b6040516101a9939291906140ba565b60065461026c906001600160a01b031681565b61036061035b366004613e94565b6107cc565b6040516101a9919061422d565b6103a361037b366004613dc8565b6005818051602081018201805184825260208301602085012091525460ff1693508492505050565b6040516101a99190614282565b61019c63de180de381565b6103ce6103c9366004613e94565b610a8c565b6040516101a99b9a99989796959493929190614290565b61026c73ff0000000000000000000000000000000000000781565b6102f661040e366004613e94565b610d05565b61020161042136600461435c565b610d31565b610439610434366004613fa6565b610f90565b6040516101a991906143b9565b61028c610454366004613e94565b610fef565b61046c610467366004613dc8565b6110d7565b6040516101a99291906143c7565b6006546000906001600160a01b0316331461049457600080fd5b600060405180604001604052806104aa86611192565b81526020016104b8856111db565b9052905060006104c782611227565b90506000806104d583611271565b91509150806104ff5760405162461bcd60e51b81526004016104f69061446a565b60405180910390fd5b50925050505b92915050565b6060600061051883611308565b9050610528816101400151611618565b9392505050565b600060048260405161054191906144a2565b9081526020016040518091039020546001600160401b0316116105765760405162461bcd60e51b81526004016104f69061450b565b60006105a860048360405161058b91906144a2565b9081526020016040518091039020546001600160401b0316611675565b90506000816020015160070b13156105fd5760046005836040516105cc91906144a2565b9081526020016040518091039020805460ff191660018360048111156105f4576105f461423e565b02179055505050565b6000815160070b131561061c5760036005836040516105cc91906144a2565b5050565b61063b60405160408082019052606081526000602082015290565b6003838360405161064d92919061452e565b908152602001604051809103902060405180604001604052908160008201805461067690614551565b80601f01602080910402602001604051908101604052809291908181526020018280546106a290614551565b80156106ef5780601f106106c4576101008083540402835291602001916106ef565b820191906000526020600020905b8154815290600101906020018083116106d257829003601f168201915b50505091835250506001919091015460ff1615156020909101529392505050565b60008060608082639d8b0677196001600160401b0389160161076357610735866116c8565b6000610741600161189d565b905061074e8160016118bd565b610757816118d4565b925060519150506107bc565b63f98c9965196001600160401b038916016107865761078186611901565b6107bc565b63de180de2196001600160401b038916016107a45761078186611ac5565b60405162461bcd60e51b81526004016104f6906145d1565b6000989097509095509350505050565b6107d4613ae5565b600182815481106107e7576107e76145e1565b90600052602060002090600a02016040518061016001604052908160008201805461081190614551565b80601f016020809104026020016040519081016040528092919081815260200182805461083d90614551565b801561088a5780601f1061085f5761010080835404028352916020019161088a565b820191906000526020600020905b81548152906001019060200180831161086d57829003601f168201915b505050918352505060018201546001600160401b0381166020830152600160401b900460ff16151560408201526002820180546060909201916108cc90614551565b80601f01602080910402602001604051908101604052809291908181526020018280546108f890614551565b80156109455780601f1061091a57610100808354040283529160200191610945565b820191906000526020600020905b81548152906001019060200180831161092857829003601f168201915b50505091835250506003820154600781810b6020840152600160401b909104810b6040808401919091526004840154606084015260058401546080840152600684015460a0840152908301546001600160401b031660c083015260e0909101906008830190518060800160405290816000820180546109c390614551565b80601f01602080910402602001604051908101604052809291908181526020018280546109ef90614551565b8015610a3c5780601f10610a1157610100808354040283529160200191610a3c565b820191906000526020600020905b815481529060010190602001808311610a1f57829003601f168201915b5050509183525050600191909101546001600160401b038116602083015260ff600160401b8204811615156040840152690100000000000000000090910416151560609091015290525092915050565b60018181548110610a9c57600080fd5b906000526020600020600a9091020180549091508190610abb90614551565b80601f0160208091040260200160405190810160405280929190818152602001828054610ae790614551565b8015610b345780601f10610b0957610100808354040283529160200191610b34565b820191906000526020600020905b815481529060010190602001808311610b1757829003601f168201915b50505050600183015460028401805493946001600160401b03831694600160401b90930460ff16935091610b6790614551565b80601f0160208091040260200160405190810160405280929190818152602001828054610b9390614551565b8015610be05780601f10610bb557610100808354040283529160200191610be0565b820191906000526020600020905b815481529060010190602001808311610bc357829003601f168201915b505050506003830154600484015460058501546006860154600780880154969785820b97600160401b90960490910b95509293919290916001600160401b03169060088101604051806080016040529081600082018054610c4090614551565b80601f0160208091040260200160405190810160405280929190818152602001828054610c6c90614551565b8015610cb95780601f10610c8e57610100808354040283529160200191610cb9565b820191906000526020600020905b815481529060010190602001808311610c9c57829003601f168201915b5050509183525050600191909101546001600160401b038116602083015260ff600160401b8204811615156040840152690100000000000000000090910416151560609091015290508b565b6006546001600160a01b03163314610d1c57600080fd5b610d2e610d2830611192565b82611b30565b50565b6006546000906001600160a01b03163314610d4b57600080fd5b60026005610d5984806145f7565b604051610d6792919061452e565b90815260200160405180910390205460ff166004811115610d8a57610d8a61423e565b1480610dd2575060036005610d9f84806145f7565b604051610dad92919061452e565b90815260200160405180910390205460ff166004811115610dd057610dd061423e565b145b15610def5760405162461bcd60e51b81526004016104f6906146af565b6001805480820182556000918252908390829060209020600a90910201610e168282614bb2565b50506000423383604051602001610e2f93929190614be4565b60405160208183030381529060405280519060200120905060405160408082018152838252600160208084019190915260008481529081905220815181556020820151600191909101805460ff19169115159190911790555060405160408082019052818152600160208201526002610ea886806145f7565b604051610eb692919061452e565b90815260200160405180910390208151815560208201516001918201805460ff191691151591909117905590506005610eef86806145f7565b604051610efd92919061452e565b9081526020016040518091039020805460ff19166001836004811115610f2557610f2561423e565b0217905550610f3a6060850160408601614c26565b1515817ffd6419d07e4c269e58d0c63969756c2124155b4a8d6dd08b8cd46e3a9acbf625610f6e6040880160208901614c47565b8760c00135604051610f81929190614c68565b60405180910390a39392505050565b610faa604051604080820190526000808252602082015290565b60028383604051610fbc92919061452e565b9081526020016040518091039020604051604081810190528154815260019091015460ff16151560208201529392505050565b60606000610ffc83611308565b9050611006613b7f565b604051602081016040528083519052815260208201516001600160401b0316602082015260408201511515604082015261103f30611192565b606082015261104e6000611b7c565b6080820152604051806040016040528083606001518152600160209091015260a0820152608082015160070b60c082015260a082015160070b60e082015261109960c08301516111db565b6101008201526110ac60e08301516111db565b6101208201526110c06101008301516111db565b6101408201526110cf81611bd4565b949350505050565b600381805160208101820180518482526020830160208501209152805490945084935061110692509050614551565b80601f016020809104026020016040519081016040528092919081815260200182805461113290614551565b801561117f5780601f106111545761010080835404028352916020019161117f565b820191906000526020600020905b81548152906001019060200180831161116257829003601f168201915b5050506001909301549192505060ff1682565b6111a6604051602081016040526060815290565b6040518060200160405280836040516020016111c29190614c83565b6040516020818303038152906040528152509050919050565b6111f660405160408082019052606081526000602082015290565b6000611203836000611df1565b90506040516040808201905280825181526020018260200151151590529392505050565b61124260405160408082019052606081526000602082015290565b600061124d83611e42565b9050600061126660056387ed0a64605185600080611ed9565b90506110cf81611fe8565b6000808260200151156112b0576040517f83041cea00000000000000000000000000000000000000000000000000000000815260040160405180910390fd5b60006112bf6000196000611df1565b905060006112d28551866020015161207c565b90506112de81836120ae565b156112f157506000946001945092505050565b80516112fc90614cc8565b95600095509350505050565b611310613ae5565b6000828152602081905260408120604051604080820190528154815260019091015460ff161515602082019081529091505161135e5760405162461bcd60e51b81526004016104f690614d42565b6001815181548110611372576113726145e1565b90600052602060002090600a02016040518061016001604052908160008201805461139c90614551565b80601f01602080910402602001604051908101604052809291908181526020018280546113c890614551565b80156114155780601f106113ea57610100808354040283529160200191611415565b820191906000526020600020905b8154815290600101906020018083116113f857829003601f168201915b505050918352505060018201546001600160401b0381166020830152600160401b900460ff161515604082015260028201805460609092019161145790614551565b80601f016020809104026020016040519081016040528092919081815260200182805461148390614551565b80156114d05780601f106114a5576101008083540402835291602001916114d0565b820191906000526020600020905b8154815290600101906020018083116114b357829003601f168201915b50505091835250506003820154600781810b6020840152600160401b909104810b6040808401919091526004840154606084015260058401546080840152600684015460a0840152908301546001600160401b031660c083015260e09091019060088301905180608001604052908160008201805461154e90614551565b80601f016020809104026020016040519081016040528092919081815260200182805461157a90614551565b80156115c75780601f1061159c576101008083540402835291602001916115c7565b820191906000526020600020905b8154815290600101906020018083116115aa57829003601f168201915b5050509183525050600191909101546001600160401b038116602083015260ff600160401b820481161515604084015269010000000000000000009091041615156060909101529052509392505050565b60606000611626604061189d565b90506116338160046120d8565b61163f835182906120e4565b61164e83602001518290612102565b61165d836040015182906118bd565b61166c836060015182906118bd565b610528816118d4565b61168f604051604080820190526000808252602082015290565b60006116a3836001600160401b031661210e565b905060006116bd6005639904f2ff60518560006001611ed9565b90506110cf81612146565b3373ff00000000000000000000000000000000000005146116fb5760405162461bcd60e51b81526004016104f690614dac565b6000611706826121b0565b905060006117178260200151612212565b90506000815151905060028160405161173091906144a2565b90815260200160405180910390206001015460ff166117615760405162461bcd60e51b81526004016104f690614e16565b60038160405161177191906144a2565b90815260200160405180910390206001015460ff16156117a35760405162461bcd60e51b81526004016104f690614e80565b60006117cc6002836040516117b891906144a2565b908152602001604051809103902054611308565b90508060400151151583604001511515146117f95760405162461bcd60e51b81526004016104f690614ec4565b60008061180a856101000151611271565b9150915060008061181f876101000151611271565b9150915082801561182d5750805b6118495760405162461bcd60e51b81526004016104f690614f54565b8460c0015184111561186d5760405162461bcd60e51b81526004016104f690614fbe565b8461010001518211156118925760405162461bcd60e51b81526004016104f690615028565b505050505050505050565b6118a5613c7e565b6118b081518361236d565b5060006020820152919050565b61061c82826118cd5760146123ea565b60156123ea565b60608160200151156118f85760405162461bcd60e51b81526004016104f69061506c565b81515192915050565b3373ff00000000000000000000000000000000000005146119345760405162461bcd60e51b81526004016104f690614dac565b600061193f826123f9565b9050600061194d8251612212565b9050600281515160405161196191906144a2565b90815260200160405180910390206001015460ff166119925760405162461bcd60e51b81526004016104f690614e16565b60038151516040516119a491906144a2565b90815260200160405180910390206001015460ff16156119d65760405162461bcd60e51b81526004016104f690614e80565b6040518060400160405280826080015151815260016020909101526003825151604051611a0391906144a2565b908152602001604051809103902081518190611a1f908261507c565b506020820151600191909101805460ff19169115159190911790555060208201516004825151604051611a5291906144a2565b9081526020016040518091039020805467ffffffffffffffff19166001600160401b039290921691909117905560026005825151604051611a9391906144a2565b9081526020016040518091039020805460ff19166001836004811115611abb57611abb61423e565b0217905550505050565b3373ff0000000000000000000000000000000000000714611af85760405162461bcd60e51b81526004016104f6906151b3565b7f10aa319ed8cad9bceb033c0c2788c4ae17469ac844e4c6e2c2e20e74ca8a7be8604051611b25906151f7565b60405180910390a150565b6000611b3b83612465565b90506000611b546005633105f1a6605185876000611ed9565b9050805115611b7657604051630e74990760e01b815260040160405180910390fd5b50505050565b611b90604051602081016040526060815290565b6000611b9b8361248e565b905060405160208101604052808251604051602001611bba9190615214565b604051602081830303815290604052815250915050919050565b6060600080611be78461010001516124ef565b90506000611bf98561012001516124ef565b90506000611c0b8661014001516124ef565b9050611c17600b61260d565b611c219085615241565b9350611c2e86515161265b565b611c389085615241565b9350611c5086602001516001600160401b031661260d565b611c5a9085615241565b9350611c64612673565b611c6e9085615241565b9350611c7e866060015151612684565b611c889085615241565b9350611c98866080015151612684565b611ca29085615241565b9350611cb28660a0015151612684565b611cbc9085615241565b9350611ccb8660c00151612692565b611cd59085615241565b9350611ce48660e00151612692565b611cee9085615241565b9350611cf983612684565b611d039085615241565b9350611d0e82612684565b611d189085615241565b9350611d2381612684565b611d2d9085615241565b93506000611d3a8561189d565b9050611d4781600b6120d8565b611d5487515182906126d5565b611d6387602001518290612102565b611d72876040015182906118bd565b611d828760600151518290612723565b611d928760800151518290612723565b611da18760a001518290612730565b611db08760c001518290612751565b611dbf8760e001518290612751565b611dc98185612723565b611dd38184612723565b611ddd8183612723565b611de6816118d4565b979650505050505050565b611e17604051806060016040528060608152602001600015158152602001600081525090565b61052883604051602001611e2b9190615254565b60405160208183030381529060405283600061275b565b6060600080611e5484602001516124ef565b9050611e60600261260d565b611e6a9083615241565b9150611e77845151612684565b611e819083615241565b9150611e8c81612684565b611e969083615241565b91506000611ea38361189d565b9050611eb08160026120d8565b611ebd8551518290612723565b611ec78183612723565b611ed0816118d4565b95945050505050565b6060611ef973fe0000000000000000000000000000000000000584612830565b60008073fe00000000000000000000000000000000000005888686611f1f576000611f22565b60015b8a8a8e604051602001611f3a96959493929190615272565b604051602081830303815290604052604051611f5691906144a2565b600060405180830381855af49150503d8060008114611f91576040513d603f01601f191681016040523d815291503d6000602084013e611f96565b606091505b509150915081611fd2576040517f8a7db5bf00000000000000000000000000000000000000000000000000000000815260040160405180910390fd5b611fdb816128aa565b9998505050505050505050565b61200360405160408082019052606081526000602082015290565b6060600080845111156120325761201a84826129b3565b9092509050600082511115612032576110cf82612b26565b60405160408082019052806000604051818152601f19601f8301168101602001604052908015612069576020820181803683370190505b5081526000602090910152949350505050565b6120a2604051806060016040528060608152602001600015158152602001600081525090565b6105288383600061275b565b6000806120bd84846001612c8c565b9050806001146120ce5760006110cf565b6001949350505050565b61061c82600483612dcc565b6120f18260038351612dd3565b6120fd81835190612ef0565b505050565b61061c82600083612dd3565b60606000612124836001600160401b031661260d565b905060006121318261189d565b905061213d8185612102565b6110cf816118d4565b612160604051604080820190526000808252602082015290565b60008061216d8482612f17565b9250905060028114612181576121816152c8565b61218b8483612f63565b60079190910b8452915061219f8483612f63565b5060070b6020840152509092915050565b6121ca604051604080820190526060808252602082015290565b6000806121d78482612f17565b92509050600281146121eb576121eb6152c8565b6121f584836129b3565b908452915061220484836129b3565b506020840152509092915050565b61221a613b7f565b60008060606122298583612f17565b93509150600b821461223d5761223d6152c8565b61224785846129b3565b935090506040516020810160405281815284526122648584612f7d565b6001600160401b03909116602086015292506122808584612fbe565b9015156040860152925061229485846129b3565b935090506122a181613029565b60608501526122b085846129b3565b935090506122bd81613029565b60808501526122cc858461308d565b60a086019190915292506122e08584612f63565b60079190910b60c086015292506122f78584612f63565b60079190910b60e08601529250606061231086856129b3565b9450905061231d81612b26565b610100860152606061232f87866129b3565b9550905061233c81612b26565b610120870152606061234e88876129b3565b9650905061235b81612b26565b61014088015250949695505050505050565b61238860405160408082019052606081526000602082015290565b6123936020836152f4565b156123bb576123a36020836152f4565b6123ae906020615308565b6123b89083615241565b91505b6020830182905260405180845260008152828101602001818110156123df57600080fd5b604052509192915050565b6120fd60e082178351906131e7565b61241460405160408082019052606081526000602082015290565b6000806124218482612f17565b9250905060028114612435576124356152c8565b61243f84836129b3565b908452915061244e8483612f7d565b506001600160401b03166020840152509092915050565b606060006124738351612684565b905060006124808261189d565b905061213d84518290612723565b6124a960405160408082019052606081526000602082015290565b6701ffffffffffffff600783901c1691607f1660008390036124d6576124cf82826131e7565b5050919050565b6124e382608083176131e7565b50506124a9565b919050565b60606000825151612501906001615241565b6001600160401b0381111561251857612518613cd0565b604051818152601f19601f8301168101602001604052908015612542576020820181803683370190505b5090508260200151151560011461255a576000612560565b600160f81b5b81600081518110612573576125736145e1565b60200101906001600160f81b031916908160001a905350600160005b84515181101561260457845181815181106125ac576125ac6145e1565b60200101516001600160f81b0319168383815181106125cd576125cd6145e1565b60200101906001600160f81b031916908160001a905350816125ee8161531b565b92505080806125fc9061531b565b91505061258f565b50909392505050565b60006017821161261f57506001919050565b60ff821161262f57506002919050565b61ffff821161264057506003919050565b63ffffffff821161265357506005919050565b506009919050565b60008151612669600261260d565b6105059190615241565b600061267f600161260d565b905090565b60008151612669835161260d565b600081600781900b82136126b257610528816001600160401b031661260d565b6105286126c18260001961532e565b6001600160401b031661260d565b50919050565b6126e260d88351906131e7565b506126f0602a8351906131e7565b5061061c816040516020016127059190615371565b6040516020818303038152906040528361272390919063ffffffff16565b6120f18260028351612dd3565b80602001516127455761061c81518390612723565b61061c815183906120e4565b61061c828261325a565b612781604051806060016040528060608152602001600015158152602001600081525090565b602084018451600059601f831615600181146127af57601f84166020908103808601845283010192506127b9565b6020820192508382525b508282848660046101c2fa506020815101810160405280515b60208114612800576000602083015114600181146127f05750612800565b60208301925050601f19016127d2565b8152845250505060208101839052811561281a5781612824565b6128248151613288565b60408201529392505050565b478181101561286f5780826040517f8f0f42060000000000000000000000000000000000000000000000000000000081526004016104f6929190615386565b823f151580611b76576040517f64d954b000000000000000000000000000000000000000000000000000000000815260040160405180910390fd5b6060600080806020850185518101906128c3919061540a565b919450925090506001600160401b0382166128fd578051156128f857604051630e74990760e01b815260040160405180910390fd5b612979565b6001600160401b0382166051148061291e57506001600160401b0382166071145b156129455780516000036128f857604051630e74990760e01b815260040160405180910390fd5b816040517ff1f6bced0000000000000000000000000000000000000000000000000000000081526004016104f69190613cc2565b82156110cf57826040517fd4bb66710000000000000000000000000000000000000000000000000000000081526004016104f69190613e86565b606060008060006129c486866132c6565b96509092506001600160401b0316905060ff8216600614806129e9575060ff82166002145b612a055760405162461bcd60e51b81526004016104f6906154c4565b60051960ff831601612a3e57612a1b86866132c6565b96509092506001600160401b0316905060ff8216600214612a3e57612a3e6152c8565b6000612a4a8287615241565b90506000826001600160401b03811115612a6657612a66613cd0565b604051818152601f19601f8301168101602001604052908015612a90576020820181803683370190505b5090506000875b83811015612b0957898181518110612ab157612ab16145e1565b60200101516001600160f81b031916838381518110612ad257612ad26145e1565b60200101906001600160f81b031916908160001a90535081612af38161531b565b9250508080612b019061531b565b915050612a97565b5081612b15858a615241565b9650965050505050505b9250929050565b612b4160405160408082019052606081526000602082015290565b8151600003612b7957604051806040016040528060405160408082019052600181526000602080830182905291835291015292915050565b600060018351612b899190615308565b6001600160401b03811115612ba057612ba0613cd0565b604051818152601f19601f8301168101602001604052908015612bca576020820181803683370190505b509050600083600081518110612be257612be26145e1565b60200101516001600160f81b031916600160f81b03612bff575060015b60015b8451811015612c7157848181518110612c1d57612c1d6145e1565b60200101516001600160f81b03191683612c38600184615308565b81518110612c4857612c486145e1565b60200101906001600160f81b031916908160001a90535080612c698161531b565b915050612c02565b50604051604080820190529182521515602082015292915050565b600060018215612d055784602001518015612ca8575083602001515b15612cb65750600019612d05565b8460200151158015612cce5750836020015115156001145b15612cdd576001915050610528565b846020015115156001148015612cf557508360200151155b15612d0557600019915050610528565b836040015185604001511115612d1c579050610528565b846040015184604001511115612d4057612d38816000196154d4565b915050610528565b600080808080895151905060208a510194506020895101935060005b81811015612dbb5780860151935080850151925082841115612d875786975050505050505050610528565b83831115612da957612d9b876000196154d4565b975050505050505050610528565b612db4602082615241565b9050612d5c565b5060009a9950505050505050505050565b6120fd8383835b6017816001600160401b031611612df957611b7660e0600584901b1682178451906131e7565b60ff816001600160401b031611612e3a57612e216018611fe0600585901b16178451906131e7565b50611b766001600160401b038216600185519190613443565b61ffff816001600160401b031611612e7c57612e636019611fe0600585901b16178451906131e7565b50611b766001600160401b038216600285519190613443565b63ffffffff816001600160401b031611612ec057612ea7601a611fe0600585901b16178451906131e7565b50611b766001600160401b038216600485519190613443565b612ed7601b611fe0600585901b16178451906131e7565b50611b766001600160401b038216600885519190613443565b612f0b60405160408082019052606081526000602082015290565b610528838384516134d2565b600080600080612f2786866132c6565b96509092506001600160401b0316905060ff8216600414612f5a5760405162461bcd60e51b81526004016104f690615540565b95939450505050565b60008080612f7185856135ac565b90969095509350505050565b600080600080612f8d86866132c6565b96509092506001600160401b0316905060ff821615612f5a5760405162461bcd60e51b81526004016104f6906155aa565b600080600080612fce86866132c6565b96509092506001600160401b0316905060ff82166007146130015760405162461bcd60e51b81526004016104f6906155ee565b60158114806130105750601481145b61301c5761301c6152c8565b6014141595939450505050565b61303d604051602081016040526060815290565b6000604051602081016040528381529050613057816135fb565b610505576040517fe6c4247b00000000000000000000000000000000000000000000000000000000815260040160405180910390fd5b6130a860405160408082019052606081526000602082015290565b60008060006130b786866132c6565b96509092506001600160401b0316905060ff8216600214806130dc575060ff82166003145b6130f85760405162461bcd60e51b81526004016104f690615658565b60006131048287615241565b90506000826001600160401b0381111561312057613120613cd0565b604051818152601f19601f830116810160200160405290801561314a576020820181803683370190505b5090506000875b838110156131c35789818151811061316b5761316b6145e1565b60200101516001600160f81b03191683838151811061318c5761318c6145e1565b60200101906001600160f81b031916908160001a905350816131ad8161531b565b92505080806131bb9061531b565b915050613151565b506040516040808201905282815260ff86166003146020820152612b15858a615241565b61320260405160408082019052606081526000602082015290565b600083515190506000613216826001615241565b9050846020015182106132375761323785613232836002615668565b613773565b8451602083820101858153815183111561324f578282525b509495945050505050565b60008160070b126132715761061c82600083612dd3565b61061c8260016132838460001961532e565b612dd3565b60006132938261378e565b156132a057506000919050565b6000602083015190506132b2816137d7565b915060086020845103028201915050919050565b6000806000806132d686866139d4565b90506132e3600186615241565b94506007600582901c16601f8216601c81106133115760405162461bcd60e51b81526004016104f6906156da565b60188160ff16101561332f5790945060ff16925084915061343c9050565b8060ff1660180361338c57600061334689896139d4565b9050613353600189615241565b975060188160ff1610156133795760405162461bcd60e51b81526004016104f69061571e565b9195505060ff16925084915061343c9050565b8060ff166019036133c65760006133a38989613a22565b90506133b0600289615241565b97509195505061ffff16925084915061343c9050565b8060ff16601a036134025760006133dd8989613a63565b90506133ea600489615241565b97509195505063ffffffff16925084915061343c9050565b8060ff16601b14613415576134156152c8565b60006134218989613aa4565b905061342e600889615241565b975091955090935085925050505b9250925092565b61345e60405160408082019052606081526000602082015290565b6000845151905060006134718285615241565b9050856020015181111561348e5761348e86613232836002615668565b6000600161349e8661010061583c565b6134a89190615308565b9050865182810187831982511617815281518411156134c5578382525b5096979650505050505050565b6134ed60405160408082019052606081526000602082015290565b82518211156134fb57600080fd5b60008451519050600061350e8483615241565b9050856020015181111561352b5761352b86613232836002615668565b60008087518051856020830101935080851115613546578482525b505050602086015b602086106135865780518252613565602083615241565b9150613572602082615241565b905061357f602087615308565b955061354e565b60001960208790036101000a018019825116818451161790925250959695505050505050565b6000806000806135bc86866132c6565b96509092506001600160401b0316905060ff8216600114806135df575060ff8216155b612f5a5760405162461bcd60e51b81526004016104f6906158a5565b60008151600081518110613611576136116145e1565b60200101516001600160f81b03191660000361363457600a825151111592915050565b8151600081518110613648576136486145e1565b60200101516001600160f81b031916600160f81b14806136a957508151600081518110613677576136776145e1565b60200101516001600160f81b0319167f0200000000000000000000000000000000000000000000000000000000000000145b156136ba5781515160151492915050565b81516000815181106136ce576136ce6145e1565b60200101516001600160f81b0319167f03000000000000000000000000000000000000000000000000000000000000000361370f5781515160311492915050565b8151600081518110613723576137236145e1565b60200101516001600160f81b0319167f040000000000000000000000000000000000000000000000000000000000000003613765576040825151111592915050565b610100825151111592915050565b600082519050613783838361236d565b50611b768382612ef0565b60008060208301815b84518110156137cc578151925082156137b557506000949350505050565b6020918201916137c59082615241565b9050613797565b506001949350505050565b60008115600181146139cb57700100000000000000000000000000000000600160401b640100000000620100006101006010600460026000198b019081041790810417908104179081041790810417908104179081041790810417600101926040517ff8f9cbfae6cc78fbefe7cdc3a1793dfcf4f0e8bbd8cec470b6a28a7a5a3e1efd81527ff5ecf1b3e9debc68e1d9cfabc5997135bfb7a7a3938b7b606b5b4b3f2f1f0ffe60208201527ff6e4ed9ff2d6b458eadcdf97bd91692de2d4da8fd2d0ac50c6ae9a827252361660408201527fc8c0b887b0a8a4489c948c7f847c6125746c645c544c444038302820181008ff60608201527ff7cae577eec2a03cf3bad76fb589591debb2dd67e0aa9834bea6925f6a4a2e0e60808201527fe39ed557db96902cd38ed14fad815115c786af479b7e8324736353433727170760a08201527fc976c13bb96e881cb166a933a55e490d9d56952b8d4e801485467d236242260660c08201527f753a6d1b65325d0c552a4d1345224105391a310b29122104190a11030902010060e082015261010081016040527e818283848586878898a8b8c8d8e8f929395969799a9b9d9e9faaeb6bedeeff600160f81b8082880204818160ff0385015104600160ff1b861161010002019650600019850185166139c1576001870196505b50505050506126cf565b50600092915050565b60006139e1826001615241565b83511015613a015760405162461bcd60e51b81526004016104f6906158e9565b828281518110613a1357613a136145e1565b602001015160f81c9392505050565b6000613a2f826002615241565b83511015613a4f5760405162461bcd60e51b81526004016104f6906158e9565b60008260200184015160f01c949350505050565b6000613a70826004615241565b83511015613a905760405162461bcd60e51b81526004016104f6906158e9565b60008260200184015160e01c949350505050565b6000613ab1826008615241565b83511015613ad15760405162461bcd60e51b81526004016104f6906158e9565b60008260200184015160c01c949350505050565b6040518061016001604052806060815260200160006001600160401b0316815260200160001515815260200160608152602001600060070b8152602001600060070b815260200160008152602001600081526020016000815260200160006001600160401b03168152602001613b7a604051608081016040908152606080835260006020840181905291830182905282015290565b905290565b604051806101600160405280613b9f604051602081016040526060815290565b815260200160006001600160401b03168152602001600015158152602001613bd1604051602081016040526060815290565b8152602001613bea604051602081016040526060815290565b8152602001613c0a60405160408082019052606081526000602082015290565b8152602001600060070b8152602001600060070b8152602001613c3e60405160408082019052606081526000602082015290565b8152602001613c5e60405160408082019052606081526000602082015290565b8152602001613b7a60405160408082019052606081526000602082015290565b6040518060400160405280613ca460405160408082019052606081526000602082015290565b8152602001600081525090565b6001600160401b0381165b82525050565b602081016105058284613cb1565b634e487b7160e01b600052604160045260246000fd5b601f19601f83011681018181106001600160401b0382111715613d0b57613d0b613cd0565b6040525050565b6000613d216000604051905090565b90506124ea8282613ce6565b60006001600160401b03821115613d4657613d46613cd0565b601f19601f83011660200192915050565b82818337506000910152565b6000613d76613d7184613d2d565b613d12565b905082815260208101848484011115613d9157613d91600080fd5b613d9c848285613d57565b509392505050565b600082601f830112613db857613db8600080fd5b81356110cf848260208601613d63565b600060208284031215613ddd57613ddd600080fd5b81356001600160401b03811115613df657613df6600080fd5b6110cf84828501613da4565b60006001600160a01b038216610505565b613e1c81613e02565b8114610d2e57600080fd5b803561050581613e13565b80613e1c565b803561050581613e32565b60008060408385031215613e5957613e59600080fd5b6000613e658585613e27565b9250506020613e7685828601613e38565b9150509250929050565b80613cbc565b602081016105058284613e80565b600060208284031215613ea957613ea9600080fd5b60006110cf8484613e38565b801515613cbc565b60408101613ecb8285613e80565b6105286020830184613eb5565b613cbc81613e02565b602081016105058284613ed8565b60005b83811015613f0a578082015183820152602001613ef2565b50506000910152565b6000613f23826000815192915050565b808452602084019350613f3a818560208601613eef565b601f01601f19169290920192915050565b602080825281016105288184613f13565b60008083601f840112613f7157613f71600080fd5b5081356001600160401b03811115613f8b57613f8b600080fd5b602083019150836001820283011115612b1f57612b1f600080fd5b60008060208385031215613fbc57613fbc600080fd5b82356001600160401b03811115613fd557613fd5600080fd5b613fe185828601613f5c565b92509250509250929050565b600060408301825184820385526140048282613f13565b9150506020830151613d9c6020860182613eb5565b602080825281016105288184613fed565b6001600160401b038116613e1c565b80356105058161402a565b60008060006060848603121561405c5761405c600080fd5b60006140688686614039565b935050602061407986828701614039565b92505060408401356001600160401b0381111561409857614098600080fd5b6140a486828701613da4565b9150509250925092565b63ffffffff8116613cbc565b606081016140c882866140ae565b6140d56020830185613cb1565b8181036040830152611ed08184613f13565b613cbc8160070b90565b600060808301825184820385526141088282613f13565b915050602083015161411d6020860182613cb1565b5060408301516141306040860182613eb5565b506060830151613d9c6060860182613eb5565b600061016083018251848203855261415b8282613f13565b91505060208301516141706020860182613cb1565b5060408301516141836040860182613eb5565b506060830151848203606086015261419b8282613f13565b91505060808301516141b060808601826140e7565b5060a08301516141c360a08601826140e7565b5060c08301516141d660c0860182613e80565b5060e08301516141e960e0860182613e80565b506101008301516141fe610100860182613e80565b50610120830151614213610120860182613cb1565b50610140830151848203610140860152611ed082826140f1565b602080825281016105288184614143565b634e487b7160e01b600052602160045260246000fd5b60058110610d2e57610d2e61423e565b806124ea81614254565b600061050582614264565b613cbc8161426e565b602081016105058284614279565b61016080825281016142a2818e613f13565b90506142b1602083018d613cb1565b6142be604083018c613eb5565b81810360608301526142d0818b613f13565b90506142df608083018a6140e7565b6142ec60a08301896140e7565b6142f960c0830188613e80565b61430660e0830187613e80565b614314610100830186613e80565b614322610120830185613cb1565b81810361014083015261433581846140f1565b9d9c50505050505050505050505050565b600061016082840312156126cf576126cf600080fd5b60006020828403121561437157614371600080fd5b81356001600160401b0381111561438a5761438a600080fd5b6110cf84828501614346565b6040820181516143a68482613e80565b506020820151611b766020850182613eb5565b604081016105058284614396565b604080825281016143d88185613f13565b90506105286020830184613eb5565b604881526000602082017f50726f626c656d7320636f6e76657274696e672077697468647261772062616c81527f616e636520696e746f2042696720496e742c206d617920636175736520616e2060208201527f6f766572666c6f77000000000000000000000000000000000000000000000000604082015291505b5060600190565b60208082528101610505816143e7565b600061448a826000815192915050565b614498818560208601613eef565b9290920192915050565b6000610528828461447a565b602481526000602082017f6e6f206465616c207075626c697368656420666f72207468697320706965636581527f2063696400000000000000000000000000000000000000000000000000000000602082015291505b5060400190565b60208082528101610505816144ae565b6000614528838584613d57565b50500190565b60006110cf82848661451b565b634e487b7160e01b600052602260045260246000fd5b60028104600182168061456557607f821691505b6020821081036126cf576126cf61453b565b603281526000602082017f7468652066696c65636f696e206d6574686f642074686174207761732063616c81527f6c6564206973206e6f742068616e646c6564000000000000000000000000000060208201529150614504565b6020808252810161050581614577565b634e487b7160e01b600052603260045260246000fd5b6000808335601e193685900301811261461257614612600080fd5b8084019250823591506001600160401b0382111561463257614632600080fd5b60208301925060018202360383131561464d5761464d600080fd5b509250929050565b602981526000602082017f6465616c2077697468207468697320706965636543696420616c72656164792081527f7075626c6973686564000000000000000000000000000000000000000000000060208201529150614504565b6020808252810161050581614655565b60006105056146cb8381565b90565b6146d7836146bf565b81546008840282811b60001990911b908116901990911617825550505050565b60006120fd8184846146ce565b8181101561061c576147176000826146f7565b600101614704565b601f8211156120fd5761473d81600081815281906020902092915050565b6020601f850104810160208510156147525750805b6147646020601f860104830182614704565b5050505050565b826001600160401b0381111561478357614783613cd0565b61478d8254614551565b61479882828561471f565b6000601f8311600181146147cc57600084156147b45750858201355b600019600886021c1981166002860217865550614832565b601f1984166147e686600081815281906020902092915050565b60005b8281101561480957888501358255602094850194600190920191016147e9565b8683101561482557600019601f88166008021c19858a01351682555b6001600288020188555050505b50505050505050565b6120fd83838361476b565b600081356105058161402a565b60006001600160401b03835b81169019929092169190911792915050565b60006001600160401b038216610505565b61488b82614871565b614896818354614853565b8255505050565b801515613e1c565b600081356105058161489d565b600068ff000000000000000061485f8460401b90565b6000811515610505565b6148db826148c8565b6148968183546148b2565b613e1c8160070b90565b60008135610505816148e6565b600061050561490f6146cb8460070b90565b60070b90565b61488b826148fd565b60006fffffffffffffffff000000000000000061485f8460401b90565b614944826148fd565b61489681835461491e565b6000813561050581613e32565b60006000198361485f565b614970826146bf565b61489681835461495c565b60008235607e193684900301811261499557614995600080fd5b9190910192915050565b600069ff00000000000000000061485f8460481b90565b6149bf826148c8565b61489681835461499f565b80826149d681806145f7565b6149e181838661483b565b505050506001810160208301806149f781614846565b9050614a038184614882565b505050600181016040830180614a18816148a5565b9050614a2481846148d2565b505050600181016060830180614a39816148a5565b905061476481846149b6565b61061c82826149ca565b8082614a5b81806145f7565b614a6681838661483b565b50505050600181016020830180614a7c81614846565b9050614a888184614882565b505050600181016040830180614a9d816148a5565b9050614aa981846148d2565b5050506002810160608301614abe81856145f7565b614ac981838661483b565b50505050600381016080830180614adf816148f0565b9050614aeb8184614915565b5050506003810160a0830180614b00816148f0565b9050614b0c818461493b565b5050506004810160c0830180614b218161494f565b9050614b2d8184614967565b5050506005810160e0830180614b428161494f565b9050614b4e8184614967565b50505060068101610100830180614b648161494f565b9050614b708184614967565b50505060078101610120830180614b8681614846565b9050614b928184614882565b505050600881016101408301614ba8818561497b565b6147648184614a45565b61061c8282614a4f565b60006105058260601b90565b600061050582614bbc565b613cbc614bdf82613e02565b614bc8565b6000614bf08286613e80565b602082019150614c008285614bd3565b601482019150614c108284613e80565b506020019392505050565b80356105058161489d565b600060208284031215614c3b57614c3b600080fd5b60006110cf8484614c1b565b600060208284031215614c5c57614c5c600080fd5b60006110cf8484614039565b60408101614c768285613cb1565b6105286020830184613e80565b7f040a00000000000000000000000000000000000000000000000000000000000081526002016000614cb58284614bd3565b50601401919050565b6000610505825190565b6000614cd8826000815192915050565b60208301614ce581614cbe565b925060208210156124cf57614d01600019836020036008021b90565b9092169392505050565b601881526000602082017f70726f706f73616c4964206e6f7420617661696c61626c650000000000000000815291505b5060200190565b6020808252810161050581614d0b565b602781526000602082017f6d73672e73656e646572206e6565647320746f206265206d61726b657420616381527f746f72206630350000000000000000000000000000000000000000000000000060208201529150614504565b6020808252810161050581614d52565b602a81526000602082017f706965636520636964206d757374206265206164646564206265666f7265206181527f7574686f72697a696e670000000000000000000000000000000000000000000060208201529150614504565b6020808252810161050581614dbc565b603b81526000602082017f6465616c206661696c656420706f6c69637920636865636b3a2070726f76696481527f657220616c726561647920636c61696d6564207468697320636964000000000060208201529150614504565b6020808252810161050581614e26565b601c81526000602082017f76657269666965645f6465616c20706172616d206d69736d617463680000000081529150614d3b565b6020808252810161050581614e90565b604181526000602082017f49737375657320636f6e76657274696e672075696e7432353620746f2042696781527f496e742c206d6179206e6f7420686176652061636375726174652076616c756560208201527f730000000000000000000000000000000000000000000000000000000000000060408201529150614463565b6020808252810161050581614ed4565b602981526000602082017f73746f726167652070726963652067726561746572207468616e20726571756581527f737420616d6f756e74000000000000000000000000000000000000000000000060208201529150614504565b6020808252810161050581614f64565b602d81526000602082017f636c69656e7420636f6c6c61746572616c2067726561746572207468616e207281527f65717565737420616d6f756e740000000000000000000000000000000000000060208201529150614504565b6020808252810161050581614fce565b600c81526000602082017f496e76616c69642043424f52000000000000000000000000000000000000000081529150614d3b565b6020808252810161050581615038565b61508a826000815192915050565b6001600160401b038111156150a1576150a1613cd0565b6150ab8254614551565b6150b682828561471f565b6020601f8311600181146150eb57600084156150d3578287015190505b600019600886021c1981166002860217865550615151565b601f19841661510586600081815281906020902092915050565b60005b828110156151285784890151825560209485019460019092019101615108565b868310156151445784890151600019601f89166008021c191682555b6001600288020188555050505b505050505050565b602881526000602082017f6d73672e73656e646572206e6565647320746f2062652064617461636170206181527f63746f722066303700000000000000000000000000000000000000000000000060208201529150614504565b6020808252810161050581615159565b601181526000602082017f446174614361702052656365697665642100000000000000000000000000000081529150614d3b565b60208082528101610505816151c3565b60008082525b5060010190565b600061521f82615207565b9150610528828461447a565b634e487b7160e01b600052601160045260246000fd5b808201808211156105055761050561522b565b60006152608284613e80565b50602001919050565b613cbc81614871565b60c081016152808289613cb1565b61528d6020830188613e80565b61529a6040830187613cb1565b6152a76060830186613cb1565b81810360808301526152b98185613f13565b9050611de660a0830184615269565b634e487b7160e01b600052600160045260246000fd5b634e487b7160e01b600052601260045260246000fd5b600082615303576153036152de565b500690565b818103818111156105055761050561522b565b6000600019820361520d5761520d61522b565b600061533a8260070b90565b91506153468360070b90565b925050818103677fffffffffffffff198112677fffffffffffffff821317156105055761050561522b565b6000808252600182019150610528828461447a565b60408101614c768285613e80565b60008151905061050581613e32565b6000815190506105058161402a565b60006153c0613d7184613d2d565b9050828152602081018484840111156153db576153db600080fd5b613d9c848285613eef565b600082601f8301126153fa576153fa600080fd5b81516110cf8482602086016153b2565b60008060006060848603121561542257615422600080fd5b600061542e8686615394565b935050602061543f868287016153a3565b92505060408401516001600160401b0381111561545e5761545e600080fd5b6140a4868287016153e6565b602e81526000602082017f696e76616c6964206d616a20286578706563746564204d616a546167206f722081527f4d616a42797465537472696e672900000000000000000000000000000000000060208201529150614504565b602080825281016105058161546a565b8181028060008312600160ff1b851416156154f1576154f161522b565b82820584148315176155055761550561522b565b5092915050565b601f81526000602082017f696e76616c6964206d616a20286578706563746564204d616a4172726179290081529150614d3b565b602080825281016105058161550c565b602581526000602082017f696e76616c6964206d616a20286578706563746564204d616a556e7369676e6581527f64496e742900000000000000000000000000000000000000000000000000000060208201529150614504565b6020808252810161050581615550565b601f81526000602082017f696e76616c6964206d616a20286578706563746564204d616a4f74686572290081529150614d3b565b60208082528101610505816155ba565b603581526000602082017f696e76616c6964206d616a20286578706563746564204d616a4279746553747281527f696e67206f72204d616a54657874537472696e6729000000000000000000000060208201529150614504565b60208082528101610505816155fe565b8181028082158382048514176155055761550561522b565b602581526000602082017f63616e6e6f742068616e646c652068656164657273207769746820657874726181527f203e20323700000000000000000000000000000000000000000000000000000060208201529150614504565b6020808252810161050581615680565b600c81526000602082017f696e76616c69642063626f72000000000000000000000000000000000000000081529150614d3b565b60208082528101610505816156ea565b80825b600185111561576d5780860481111561574c5761574c61522b565b600185161561575a57908102905b80026157668560011c90565b9450615731565b94509492505050565b60008261578557506001610528565b8161579257506000610528565b81600181146157a857600281146157b2576157df565b6001915050610528565b60ff8411156157c3576157c361522b565b8360020a9150848211156157d9576157d961522b565b50610528565b5060208310610133831016604e8410600b8410161715615812575081810a8381111561580d5761580d61522b565b610528565b61581f848484600161572e565b925090508184048111156158355761583561522b565b0292915050565b60006105286000198484615776565b603581526000602082017f696e76616c6964206d616a20286578706563746564204d616a5369676e65644981527f6e74206f72204d616a556e7369676e6564496e7429000000000000000000000060208201529150614504565b602080825281016105058161584b565b601481526000602082017f736c6963696e67206f7574206f662072616e676500000000000000000000000081529150614d3b565b60208082528101610505816158b556fea26469706673582212203754f424895931c7394fccd7bc78441219442216f5d63583780cd22527233ab964736f6c63430008110033",
  "linkReferences": {},
  "deployedLinkReferences": {}
}