{
  "_format": "hh-sol-artifact-1",
  "contractName": "SimpleAuction",
  "sourceName": "contracts/SimpleAuction.sol",
  "abi": [
    {
      "inputs": [
        {
          "internalType": "uint256",
          "name": "biddingTime",
          "type": "uint256"
        },
        {
          "internalType": "address payable",
          "name": "beneficiaryAddress",
          "type": "address"
        },
        {
          "internalType": "address",
          "name": "nftAddress",
          "type": "address"
        }
      ],
      "stateMutability": "nonpayable",
      "type": "constructor"
    },
    {
      "inputs": [],
      "name": "AuctionAlreadyEnded",
      "type": "error"
    },
    {
      "inputs": [],
      "name": "AuctionEndAlreadyCalled",
      "type": "error"
    },
    {
      "inputs": [],
      "name": "AuctionNotYetEnded",
      "type": "error"
    },
    {
      "inputs": [
        {
          "internalType": "uint256",
          "name": "highestBid",
          "type": "uint256"
        }
      ],
      "name": "BidNotHighEnough",
      "type": "error"
    },
    {
      "anonymous": false,
      "inputs": [
        {
          "indexed": false,
          "internalType": "address",
          "name": "winner",
          "type": "address"
        },
        {
          "indexed": false,
          "internalType": "uint256",
          "name": "amount",
          "type": "uint256"
        }
      ],
      "name": "AuctionEnded",
      "type": "event"
    },
    {
      "anonymous": false,
      "inputs": [
        {
          "indexed": false,
          "internalType": "address",
          "name": "bidder",
          "type": "address"
        },
        {
          "indexed": false,
          "internalType": "uint256",
          "name": "amount",
          "type": "uint256"
        }
      ],
      "name": "HighestBidIncreased",
      "type": "event"
    },
    {
      "anonymous": false,
      "inputs": [
        {
          "indexed": true,
          "internalType": "address",
          "name": "previousOwner",
          "type": "address"
        },
        {
          "indexed": true,
          "internalType": "address",
          "name": "newOwner",
          "type": "address"
        }
      ],
      "name": "OwnershipTransferred",
      "type": "event"
    },
    {
      "inputs": [],
      "name": "auctionEnd",
      "outputs": [],
      "stateMutability": "nonpayable",
      "type": "function"
    },
    {
      "inputs": [],
      "name": "auctionEndTime",
      "outputs": [
        {
          "internalType": "uint256",
          "name": "",
          "type": "uint256"
        }
      ],
      "stateMutability": "view",
      "type": "function"
    },
    {
      "inputs": [],
      "name": "auctionNftAddress",
      "outputs": [
        {
          "internalType": "address",
          "name": "",
          "type": "address"
        }
      ],
      "stateMutability": "view",
      "type": "function"
    },
    {
      "inputs": [],
      "name": "beneficiary",
      "outputs": [
        {
          "internalType": "address payable",
          "name": "",
          "type": "address"
        }
      ],
      "stateMutability": "view",
      "type": "function"
    },
    {
      "inputs": [],
      "name": "bid",
      "outputs": [],
      "stateMutability": "payable",
      "type": "function"
    },
    {
      "inputs": [],
      "name": "ended",
      "outputs": [
        {
          "internalType": "bool",
          "name": "",
          "type": "bool"
        }
      ],
      "stateMutability": "view",
      "type": "function"
    },
    {
      "inputs": [],
      "name": "highestBid",
      "outputs": [
        {
          "internalType": "uint256",
          "name": "",
          "type": "uint256"
        }
      ],
      "stateMutability": "view",
      "type": "function"
    },
    {
      "inputs": [],
      "name": "highestBidder",
      "outputs": [
        {
          "internalType": "address",
          "name": "",
          "type": "address"
        }
      ],
      "stateMutability": "view",
      "type": "function"
    },
    {
      "inputs": [],
      "name": "owner",
      "outputs": [
        {
          "internalType": "address",
          "name": "",
          "type": "address"
        }
      ],
      "stateMutability": "view",
      "type": "function"
    },
    {
      "inputs": [],
      "name": "renounceOwnership",
      "outputs": [],
      "stateMutability": "nonpayable",
      "type": "function"
    },
    {
      "inputs": [
        {
          "internalType": "address",
          "name": "newOwner",
          "type": "address"
        }
      ],
      "name": "transferOwnership",
      "outputs": [],
      "stateMutability": "nonpayable",
      "type": "function"
    },
    {
      "inputs": [],
      "name": "withdraw",
      "outputs": [
        {
          "internalType": "bool",
          "name": "",
          "type": "bool"
        }
      ],
      "stateMutability": "nonpayable",
      "type": "function"
    }
  ],
  "bytecode": "0x608060405234801561001057600080fd5b50604051610a26380380610a2683398101604081905261002f91610114565b6100383361007e565b600180546001600160a01b038084166001600160a01b0319928316179092556002805492851692909116919091179055610072834261017a565b6003555061018d915050565b600080546001600160a01b038381166001600160a01b0319831681178455604051919092169283917f8be0079c531659141344cd1fd0a4f28419497f9722a3daafe3b4186f6b6457e09190a35050565b805b81146100db57600080fd5b50565b80516100e9816100ce565b92915050565b60006001600160a01b0382166100e9565b6100d0816100ef565b80516100e981610100565b60008060006060848603121561012c5761012c600080fd5b600061013886866100de565b935050602061014986828701610109565b925050604061015a86828701610109565b9150509250925092565b634e487b7160e01b600052601160045260246000fd5b808201808211156100e9576100e9610164565b61088a8061019c6000396000f3fe6080604052600436106100c75760003560e01c80634b449cba1161007457806391f901571161004e57806391f90157146101d3578063d57bde79146101f3578063f2fde38b1461020957600080fd5b80634b449cba1461017d578063715018a6146101a05780638da5cb5b146101b557600080fd5b806333afd2f9116100a557806333afd2f91461011b57806338af3eed146101485780633ccfd60b1461016857600080fd5b806312fa6feb146100cc5780631998aeef146100fc5780632a24f46c14610106575b600080fd5b3480156100d857600080fd5b506007546100e69060ff1681565b6040516100f39190610647565b60405180910390f35b610104610229565b005b34801561011257600080fd5b5061010461034a565b34801561012757600080fd5b5060015461013b906001600160a01b031681565b6040516100f39190610675565b34801561015457600080fd5b5060025461013b906001600160a01b031681565b34801561017457600080fd5b506100e6610504565b34801561018957600080fd5b5061019360035481565b6040516100f39190610689565b3480156101ac57600080fd5b50610104610568565b3480156101c157600080fd5b506000546001600160a01b031661013b565b3480156101df57600080fd5b5060045461013b906001600160a01b031681565b3480156101ff57600080fd5b5061019360055481565b34801561021557600080fd5b506101046102243660046106b6565b61057c565b600354421115610265576040517fd02e774d00000000000000000000000000000000000000000000000000000000815260040160405180910390fd5b60055434116102ad576005546040517f4e12c1bb0000000000000000000000000000000000000000000000000000000081526004016102a49190610689565b60405180910390fd5b600554156102e8576005546004546001600160a01b0316600090815260066020526040812080549091906102e290849061070e565b90915550505b6004805473ffffffffffffffffffffffffffffffffffffffff1916339081179091553460058190556040517ff4757a49b326036464bec6fe419a4ae38c8a02ce3e68bf0809674f6aab8ad30092610340929091610721565b60405180910390a1565b6002546001600160a01b031633146103745760405162461bcd60e51b81526004016102a4906107a0565b6003544210156103b0576040517f44cee29000000000000000000000000000000000000000000000000000000000815260040160405180910390fd5b60075460ff16156103ed576040517f61cfdcf800000000000000000000000000000000000000000000000000000000815260040160405180910390fd5b6007805460ff191660011790556004546005546040517fdaec4582d5d9595688c8c98545fdd1c696d41c6aeaeb636737e84ed2f5c00eda9261043a926001600160a01b0390911691610721565b60405180910390a16002546005546040516001600160a01b039092169181156108fc0291906000818181858888f1935050505015801561047e573d6000803e3d6000fd5b50600154600480546005546040517fa14481940000000000000000000000000000000000000000000000000000000081526001600160a01b039485169463a1448194946104d094909116929101610721565b600060405180830381600087803b1580156104ea57600080fd5b505af11580156104fe573d6000803e3d6000fd5b50505050565b33600090815260066020526040812054801561056057336000818152600660205260408082208290555183156108fc0291849190818181858888f193505050506105605733600090815260066020526040812091909155919050565b600191505090565b6105706105b6565b61057a60006105e0565b565b6105846105b6565b6001600160a01b0381166105aa5760405162461bcd60e51b81526004016102a49061080a565b6105b3816105e0565b50565b6000546001600160a01b0316331461057a5760405162461bcd60e51b81526004016102a49061081a565b600080546001600160a01b0383811673ffffffffffffffffffffffffffffffffffffffff19831681178455604051919092169283917f8be0079c531659141344cd1fd0a4f28419497f9722a3daafe3b4186f6b6457e09190a35050565b8015155b82525050565b60208101610655828461063d565b92915050565b60006001600160a01b038216610655565b6106418161065b565b60208101610655828461066c565b80610641565b602081016106558284610683565b6106a08161065b565b81146105b357600080fd5b803561065581610697565b6000602082840312156106cb576106cb600080fd5b60006106d784846106ab565b949350505050565b7f4e487b7100000000000000000000000000000000000000000000000000000000600052601160045260246000fd5b80820180821115610655576106556106df565b6040810161072f828561066c565b61073c6020830184610683565b9392505050565b602b81526000602082017f4f6e6c79207468652062656e65666963696172792063616e2063616c6c20746881527f69732066756e6374696f6e000000000000000000000000000000000000000000602082015291505b5060400190565b6020808252810161065581610743565b602681526000602082017f4f776e61626c653a206e6577206f776e657220697320746865207a65726f206181527f646472657373000000000000000000000000000000000000000000000000000060208201529150610799565b60208082528101610655816107b0565b60208082528181019081527f4f776e61626c653a2063616c6c6572206973206e6f7420746865206f776e657260408301526060820161065556fea2646970667358221220b7bb52103dd5f49924d9abdee47574e6e491788bf85d7cf0a6e07c40dcdc220564736f6c63430008110033",
  "linkReferences": {},
  "deployedLinkReferences": {}
}