{
  "_format": "hh-sol-artifact-1",
  "contractName": "AuctionNft",
  "sourceName": "contracts/AuctionNft.sol",
  "abi": [
    {
      "inputs": [],
      "stateMutability": "nonpayable",
      "type": "constructor"
    },
    {
      "anonymous": false,
      "inputs": [
        {
          "indexed": true,
          "internalType": "address",
          "name": "owner",
          "type": "address"
        },
        {
          "indexed": true,
          "internalType": "address",
          "name": "approved",
          "type": "address"
        },
        {
          "indexed": true,
          "internalType": "uint256",
          "name": "tokenId",
          "type": "uint256"
        }
      ],
      "name": "Approval",
      "type": "event"
    },
    {
      "anonymous": false,
      "inputs": [
        {
          "indexed": true,
          "internalType": "address",
          "name": "owner",
          "type": "address"
        },
        {
          "indexed": true,
          "internalType": "address",
          "name": "operator",
          "type": "address"
        },
        {
          "indexed": false,
          "internalType": "bool",
          "name": "approved",
          "type": "bool"
        }
      ],
      "name": "ApprovalForAll",
      "type": "event"
    },
    {
      "anonymous": false,
      "inputs": [
        {
          "indexed": true,
          "internalType": "address",
          "name": "previousOwner",
          "type": "address"
        },
        {
          "indexed": true,
          "internalType": "address",
          "name": "newOwner",
          "type": "address"
        }
      ],
      "name": "OwnershipTransferred",
      "type": "event"
    },
    {
      "anonymous": false,
      "inputs": [
        {
          "indexed": true,
          "internalType": "address",
          "name": "from",
          "type": "address"
        },
        {
          "indexed": true,
          "internalType": "address",
          "name": "to",
          "type": "address"
        },
        {
          "indexed": true,
          "internalType": "uint256",
          "name": "tokenId",
          "type": "uint256"
        }
      ],
      "name": "Transfer",
      "type": "event"
    },
    {
      "inputs": [
        {
          "internalType": "address",
          "name": "auctionContract",
          "type": "address"
        }
      ],
      "name": "addAuctionContract",
      "outputs": [],
      "stateMutability": "nonpayable",
      "type": "function"
    },
    {
      "inputs": [
        {
          "internalType": "address",
          "name": "to",
          "type": "address"
        },
        {
          "internalType": "uint256",
          "name": "tokenId",
          "type": "uint256"
        }
      ],
      "name": "approve",
      "outputs": [],
      "stateMutability": "nonpayable",
      "type": "function"
    },
    {
      "inputs": [
        {
          "internalType": "address",
          "name": "",
          "type": "address"
        }
      ],
      "name": "auctionContracts",
      "outputs": [
        {
          "internalType": "bool",
          "name": "",
          "type": "bool"
        }
      ],
      "stateMutability": "view",
      "type": "function"
    },
    {
      "inputs": [
        {
          "internalType": "address",
          "name": "owner",
          "type": "address"
        }
      ],
      "name": "balanceOf",
      "outputs": [
        {
          "internalType": "uint256",
          "name": "",
          "type": "uint256"
        }
      ],
      "stateMutability": "view",
      "type": "function"
    },
    {
      "inputs": [
        {
          "internalType": "uint256",
          "name": "tokenId",
          "type": "uint256"
        }
      ],
      "name": "getApproved",
      "outputs": [
        {
          "internalType": "address",
          "name": "",
          "type": "address"
        }
      ],
      "stateMutability": "view",
      "type": "function"
    },
    {
      "inputs": [
        {
          "internalType": "address",
          "name": "owner",
          "type": "address"
        },
        {
          "internalType": "address",
          "name": "operator",
          "type": "address"
        }
      ],
      "name": "isApprovedForAll",
      "outputs": [
        {
          "internalType": "bool",
          "name": "",
          "type": "bool"
        }
      ],
      "stateMutability": "view",
      "type": "function"
    },
    {
      "inputs": [],
      "name": "name",
      "outputs": [
        {
          "internalType": "string",
          "name": "",
          "type": "string"
        }
      ],
      "stateMutability": "view",
      "type": "function"
    },
    {
      "inputs": [],
      "name": "owner",
      "outputs": [
        {
          "internalType": "address",
          "name": "",
          "type": "address"
        }
      ],
      "stateMutability": "view",
      "type": "function"
    },
    {
      "inputs": [
        {
          "internalType": "uint256",
          "name": "tokenId",
          "type": "uint256"
        }
      ],
      "name": "ownerOf",
      "outputs": [
        {
          "internalType": "address",
          "name": "",
          "type": "address"
        }
      ],
      "stateMutability": "view",
      "type": "function"
    },
    {
      "inputs": [],
      "name": "renounceOwnership",
      "outputs": [],
      "stateMutability": "nonpayable",
      "type": "function"
    },
    {
      "inputs": [
        {
          "internalType": "address",
          "name": "to",
          "type": "address"
        },
        {
          "internalType": "uint256",
          "name": "amount",
          "type": "uint256"
        }
      ],
      "name": "safeMint",
      "outputs": [],
      "stateMutability": "nonpayable",
      "type": "function"
    },
    {
      "inputs": [
        {
          "internalType": "address",
          "name": "from",
          "type": "address"
        },
        {
          "internalType": "address",
          "name": "to",
          "type": "address"
        },
        {
          "internalType": "uint256",
          "name": "tokenId",
          "type": "uint256"
        }
      ],
      "name": "safeTransferFrom",
      "outputs": [],
      "stateMutability": "nonpayable",
      "type": "function"
    },
    {
      "inputs": [
        {
          "internalType": "address",
          "name": "from",
          "type": "address"
        },
        {
          "internalType": "address",
          "name": "to",
          "type": "address"
        },
        {
          "internalType": "uint256",
          "name": "tokenId",
          "type": "uint256"
        },
        {
          "internalType": "bytes",
          "name": "data",
          "type": "bytes"
        }
      ],
      "name": "safeTransferFrom",
      "outputs": [],
      "stateMutability": "nonpayable",
      "type": "function"
    },
    {
      "inputs": [
        {
          "internalType": "address",
          "name": "operator",
          "type": "address"
        },
        {
          "internalType": "bool",
          "name": "approved",
          "type": "bool"
        }
      ],
      "name": "setApprovalForAll",
      "outputs": [],
      "stateMutability": "nonpayable",
      "type": "function"
    },
    {
      "inputs": [
        {
          "internalType": "bytes4",
          "name": "interfaceId",
          "type": "bytes4"
        }
      ],
      "name": "supportsInterface",
      "outputs": [
        {
          "internalType": "bool",
          "name": "",
          "type": "bool"
        }
      ],
      "stateMutability": "view",
      "type": "function"
    },
    {
      "inputs": [],
      "name": "symbol",
      "outputs": [
        {
          "internalType": "string",
          "name": "",
          "type": "string"
        }
      ],
      "stateMutability": "view",
      "type": "function"
    },
    {
      "inputs": [
        {
          "internalType": "uint256",
          "name": "tokenId",
          "type": "uint256"
        }
      ],
      "name": "tokenBid",
      "outputs": [
        {
          "internalType": "uint256",
          "name": "",
          "type": "uint256"
        }
      ],
      "stateMutability": "view",
      "type": "function"
    },
    {
      "inputs": [
        {
          "internalType": "uint256",
          "name": "index",
          "type": "uint256"
        }
      ],
      "name": "tokenByIndex",
      "outputs": [
        {
          "internalType": "uint256",
          "name": "",
          "type": "uint256"
        }
      ],
      "stateMutability": "view",
      "type": "function"
    },
    {
      "inputs": [
        {
          "internalType": "address",
          "name": "owner",
          "type": "address"
        },
        {
          "internalType": "uint256",
          "name": "index",
          "type": "uint256"
        }
      ],
      "name": "tokenOfOwnerByIndex",
      "outputs": [
        {
          "internalType": "uint256",
          "name": "",
          "type": "uint256"
        }
      ],
      "stateMutability": "view",
      "type": "function"
    },
    {
      "inputs": [
        {
          "internalType": "uint256",
          "name": "tokenId",
          "type": "uint256"
        }
      ],
      "name": "tokenURI",
      "outputs": [
        {
          "internalType": "string",
          "name": "",
          "type": "string"
        }
      ],
      "stateMutability": "view",
      "type": "function"
    },
    {
      "inputs": [],
      "name": "totalSupply",
      "outputs": [
        {
          "internalType": "uint256",
          "name": "",
          "type": "uint256"
        }
      ],
      "stateMutability": "view",
      "type": "function"
    },
    {
      "inputs": [
        {
          "internalType": "address",
          "name": "from",
          "type": "address"
        },
        {
          "internalType": "address",
          "name": "to",
          "type": "address"
        },
        {
          "internalType": "uint256",
          "name": "tokenId",
          "type": "uint256"
        }
      ],
      "name": "transferFrom",
      "outputs": [],
      "stateMutability": "nonpayable",
      "type": "function"
    },
    {
      "inputs": [
        {
          "internalType": "address",
          "name": "newOwner",
          "type": "address"
        }
      ],
      "name": "transferOwnership",
      "outputs": [],
      "stateMutability": "nonpayable",
      "type": "function"
    }
  ],
  "bytecode": "0x60806040523480156200001157600080fd5b506040518060400160405280600a815260200169105d58dd1a5bdb93999d60b21b815250604051806040016040528060048152602001631053919560e21b815250816000908162000063919062000204565b50600162000072828262000204565b5050506200008f620000896200009560201b60201c565b62000099565b620002d4565b3390565b600b80546001600160a01b038381166001600160a01b0319831681179093556040519116919082907f8be0079c531659141344cd1fd0a4f28419497f9722a3daafe3b4186f6b6457e090600090a35050565b634e487b7160e01b600052604160045260246000fd5b634e487b7160e01b600052602260045260246000fd5b6002810460018216806200012c57607f821691505b60208210810362000141576200014162000101565b50919050565b600062000158620001558381565b90565b92915050565b620001698362000147565b81546008840282811b60001990911b908116901990911617825550505050565b6000620001988184846200015e565b505050565b81811015620001bc57620001b360008262000189565b6001016200019d565b5050565b601f82111562000198576000818152602090206020601f85010481016020851015620001e95750805b620001fd6020601f8601048301826200019d565b5050505050565b81516001600160401b03811115620002205762000220620000eb565b6200022c825462000117565b62000239828285620001c0565b6020601f831160018114620002705760008415620002575750858201515b600019600886021c1981166002860217865550620002cc565b600085815260208120601f198616915b82811015620002a2578885015182556020948501946001909201910162000280565b86831015620002bf5784890151600019601f89166008021c191682555b6001600288020188555050505b505050505050565b611fa480620002e46000396000f3fe608060405234801561001057600080fd5b506004361061018d5760003560e01c80636352211e116100e3578063a14481941161008c578063c87b56dd11610066578063c87b56dd1461032b578063e985e9c51461033e578063f2fde38b1461037a57600080fd5b8063a1448194146102f2578063a22cb46514610305578063b88d4fde1461031857600080fd5b80638604149c116100bd5780638604149c146102c65780638da5cb5b146102d957806395d89b41146102ea57600080fd5b80636352211e1461029857806370a08231146102ab578063715018a6146102be57600080fd5b806323b872dd1161014557806342842e0e1161011f57806342842e0e1461024f5780634f6ccce71461026257806359852f6f1461027557600080fd5b806323b872dd14610216578063265823b5146102295780632f745c591461023c57600080fd5b8063081812fc11610176578063081812fc146101d0578063095ea7b3146101f057806318160ddd1461020557600080fd5b806301ffc9a71461019257806306fdde03146101bb575b600080fd5b6101a56101a036600461144a565b61038d565b6040516101b29190611475565b60405180910390f35b6101c361039e565b6040516101b291906114d9565b6101e36101de3660046114fb565b610430565b6040516101b29190611536565b6102036101fe366004611558565b610457565b005b6008545b6040516101b2919061159b565b6102036102243660046115a9565b6104e5565b6102096102373660046114fb565b610516565b61020961024a366004611558565b610534565b61020361025d3660046115a9565b610586565b6102096102703660046114fb565b6105a1565b6101a56102833660046115f9565b600d6020526000908152604090205460ff1681565b6101e36102a63660046114fb565b6105ef565b6102096102b93660046115f9565b610624565b610203610668565b6102036102d43660046115f9565b61067c565b600b546001600160a01b03166101e3565b6101c36106a8565b610203610300366004611558565b6106b7565b61020361031336600461162d565b610710565b610203610326366004611753565b61071f565b6101c36103393660046114fb565b610757565b6101a561034c3660046117d2565b6001600160a01b03918216600090815260056020908152604080832093909416825291909152205460ff1690565b6102036103883660046115f9565b610762565b60006103988261079c565b92915050565b6060600080546103ad9061181b565b80601f01602080910402602001604051908101604052809291908181526020018280546103d99061181b565b80156104265780601f106103fb57610100808354040283529160200191610426565b820191906000526020600020905b81548152906001019060200180831161040957829003601f168201915b5050505050905090565b600061043b826107da565b506000908152600460205260409020546001600160a01b031690565b6000610462826105ef565b9050806001600160a01b0316836001600160a01b03160361049e5760405162461bcd60e51b8152600401610495906118a4565b60405180910390fd5b336001600160a01b03821614806104ba57506104ba813361034c565b6104d65760405162461bcd60e51b81526004016104959061190e565b6104e0838361080e565b505050565b6104ef3382610889565b61050b5760405162461bcd60e51b815260040161049590611978565b6104e0838383610908565b6000610521826107da565b506000908152600e602052604090205490565b600061053f83610624565b821061055d5760405162461bcd60e51b8152600401610495906119e2565b506001600160a01b03919091166000908152600660209081526040808320938352929052205490565b6104e08383836040518060200160405280600081525061071f565b60006105ac60085490565b82106105ca5760405162461bcd60e51b815260040161049590611a4c565b600882815481106105dd576105dd611a5c565b90600052602060002001549050919050565b6000818152600260205260408120546001600160a01b0316806103985760405162461bcd60e51b815260040161049590611aa9565b60006001600160a01b03821661064c5760405162461bcd60e51b815260040161049590611b13565b506001600160a01b031660009081526003602052604090205490565b610670610a4a565b61067a6000610a74565b565b610684610a4a565b6001600160a01b03166000908152600d60205260409020805460ff19166001179055565b6060600180546103ad9061181b565b336000908152600d602052604090205460ff1615156001146106eb5760405162461bcd60e51b815260040161049590611b57565b60006106f6600c5490565b9050610706600c80546001019055565b6104e08382610ad3565b61071b338383610aed565b5050565b6107293383610889565b6107455760405162461bcd60e51b815260040161049590611978565b61075184848484610b8f565b50505050565b606061039882610bc2565b61076a610a4a565b6001600160a01b0381166107905760405162461bcd60e51b815260040161049590611bc1565b61079981610a74565b50565b60006001600160e01b031982167f780e9d63000000000000000000000000000000000000000000000000000000001480610398575061039882610cca565b6000818152600260205260409020546001600160a01b03166107995760405162461bcd60e51b815260040161049590611aa9565b6000818152600460205260409020805473ffffffffffffffffffffffffffffffffffffffff19166001600160a01b0384169081179091558190610850826105ef565b6001600160a01b03167f8c5be1e5ebec7d5bd14f71427d1e84f3dd0314c0f7b2291e5b200ac8c7c3b92560405160405180910390a45050565b600080610895836105ef565b9050806001600160a01b0316846001600160a01b031614806108dc57506001600160a01b0380821660009081526005602090815260408083209388168352929052205460ff165b806109005750836001600160a01b03166108f584610430565b6001600160a01b0316145b949350505050565b826001600160a01b031661091b826105ef565b6001600160a01b0316146109415760405162461bcd60e51b815260040161049590611c2b565b6001600160a01b0382166109675760405162461bcd60e51b815260040161049590611c95565b6109748383836001610d65565b826001600160a01b0316610987826105ef565b6001600160a01b0316146109ad5760405162461bcd60e51b815260040161049590611c2b565b6000818152600460209081526040808320805473ffffffffffffffffffffffffffffffffffffffff199081169091556001600160a01b0387811680865260038552838620805460001901905590871680865283862080546001019055868652600290945282852080549092168417909155905184937fddf252ad1be2c89b69c2b068fc378daa952ba7f163c4a11628f55a4df523b3ef91a4505050565b600b546001600160a01b0316331461067a5760405162461bcd60e51b815260040161049590611cd7565b600b80546001600160a01b0383811673ffffffffffffffffffffffffffffffffffffffff19831681179093556040519116919082907f8be0079c531659141344cd1fd0a4f28419497f9722a3daafe3b4186f6b6457e090600090a35050565b61071b828260405180602001604052806000815250610d71565b816001600160a01b0316836001600160a01b031603610b1e5760405162461bcd60e51b815260040161049590611d1b565b6001600160a01b0383811660008181526005602090815260408083209487168084529490915290819020805460ff1916851515179055517f17307eab39ab6107e8899845ad3d59bd9653f200f220920489ca2b5937696c3190610b82908590611475565b60405180910390a3505050565b610b9a848484610908565b610ba684848484610da4565b6107515760405162461bcd60e51b815260040161049590611d85565b6060610bcd826107da565b6000828152600a602052604081208054610be69061181b565b80601f0160208091040260200160405190810160405280929190818152602001828054610c129061181b565b8015610c5f5780601f10610c3457610100808354040283529160200191610c5f565b820191906000526020600020905b815481529060010190602001808311610c4257829003601f168201915b505050505090506000610c7d60408051602081019091526000815290565b90508051600003610c8f575092915050565b815115610cc1578082604051602001610ca9929190611db7565b60405160208183030381529060405292505050919050565b61090084610ea5565b60006001600160e01b031982167f80ac58cd000000000000000000000000000000000000000000000000000000001480610d2d57506001600160e01b031982167f5b5e139f00000000000000000000000000000000000000000000000000000000145b8061039857507f01ffc9a7000000000000000000000000000000000000000000000000000000006001600160e01b0319831614610398565b61075184848484610f19565b610d7b8383610fff565b610d886000848484610da4565b6104e05760405162461bcd60e51b815260040161049590611d85565b60006001600160a01b0384163b15610e9a57604051630a85bd0160e11b81526001600160a01b0385169063150b7a0290610de8903390899088908890600401611dcf565b6020604051808303816000875af1925050508015610e23575060408051601f3d908101601f19168201909252610e2091810190611e1e565b60015b610e80573d808015610e51576040519150601f19603f3d011682016040523d82523d6000602084013e610e56565b606091505b508051600003610e785760405162461bcd60e51b815260040161049590611d85565b805181602001fd5b6001600160e01b031916630a85bd0160e11b149050610900565b506001949350505050565b6060610eb0826107da565b6000610ec760408051602081019091526000815290565b90506000815111610ee75760405180602001604052806000815250610f12565b80610ef184611115565b604051602001610f02929190611db7565b6040516020818303038152906040525b9392505050565b6001811115610f3a5760405162461bcd60e51b815260040161049590611e99565b816001600160a01b038516610f9657610f9181600880546000838152600960205260408120829055600182018355919091527ff3f7a9fe364faab93b216da50a3214154f22a0a2b415b23a84c8169e8b636ee30155565b610fb9565b836001600160a01b0316856001600160a01b031614610fb957610fb985826111b6565b6001600160a01b038416610fd557610fd081611253565b610ff8565b846001600160a01b0316846001600160a01b031614610ff857610ff88482611302565b5050505050565b6001600160a01b0382166110255760405162461bcd60e51b815260040161049590611edb565b6000818152600260205260409020546001600160a01b03161561105a5760405162461bcd60e51b815260040161049590611f1f565b611068600083836001610d65565b6000818152600260205260409020546001600160a01b03161561109d5760405162461bcd60e51b815260040161049590611f1f565b6001600160a01b0382166000818152600360209081526040808320805460010190558483526002909152808220805473ffffffffffffffffffffffffffffffffffffffff19168417905551839291907fddf252ad1be2c89b69c2b068fc378daa952ba7f163c4a11628f55a4df523b3ef908290a45050565b6060600061112283611346565b600101905060008167ffffffffffffffff81111561114257611142611660565b6040519080825280601f01601f19166020018201604052801561116c576020820181803683370190505b5090508181016020015b600019017f3031323334353637383961626364656600000000000000000000000000000000600a86061a8153600a8504945084611176575b509392505050565b600060016111c384610624565b6111cd9190611f45565b600083815260076020526040902054909150808214611220576001600160a01b03841660009081526006602090815260408083208584528252808320548484528184208190558352600790915290208190555b5060009182526007602090815260408084208490556001600160a01b039094168352600681528383209183525290812055565b60085460009061126590600190611f45565b6000838152600960205260408120546008805493945090928490811061128d5761128d611a5c565b9060005260206000200154905080600883815481106112ae576112ae611a5c565b60009182526020808320909101929092558281526009909152604080822084905585825281205560088054806112e6576112e6611f58565b6001900381819060005260206000200160009055905550505050565b600061130d83610624565b6001600160a01b039093166000908152600660209081526040808320868452825280832085905593825260079052919091209190915550565b6000807a184f03e93ff9f4daa797ed6e38ed64bf6a1f010000000000000000831061138f577a184f03e93ff9f4daa797ed6e38ed64bf6a1f010000000000000000830492506040015b6d04ee2d6d415b85acef810000000083106113bb576d04ee2d6d415b85acef8100000000830492506020015b662386f26fc1000083106113d957662386f26fc10000830492506010015b6305f5e10083106113f1576305f5e100830492506008015b612710831061140557612710830492506004015b60648310611417576064830492506002015b600a83106103985760010192915050565b6001600160e01b031981165b811461079957600080fd5b803561039881611428565b60006020828403121561145f5761145f600080fd5b6000610900848461143f565b8015155b82525050565b60208101610398828461146b565b60005b8381101561149e578181015183820152602001611486565b50506000910152565b60006114b1825190565b8084526020840193506114c8818560208601611483565b601f01601f19169290920192915050565b60208082528101610f1281846114a7565b80611434565b8035610398816114ea565b60006020828403121561151057611510600080fd5b600061090084846114f0565b60006001600160a01b038216610398565b61146f8161151c565b60208101610398828461152d565b6114348161151c565b803561039881611544565b6000806040838503121561156e5761156e600080fd5b600061157a858561154d565b925050602061158b858286016114f0565b9150509250929050565b8061146f565b602081016103988284611595565b6000806000606084860312156115c1576115c1600080fd5b60006115cd868661154d565b93505060206115de8682870161154d565b92505060406115ef868287016114f0565b9150509250925092565b60006020828403121561160e5761160e600080fd5b6000610900848461154d565b801515611434565b80356103988161161a565b6000806040838503121561164357611643600080fd5b600061164f858561154d565b925050602061158b85828601611622565b634e487b7160e01b600052604160045260246000fd5b601f19601f830116810181811067ffffffffffffffff8211171561169c5761169c611660565b6040525050565b60006116ae60405190565b90506116ba8282611676565b919050565b600067ffffffffffffffff8211156116d9576116d9611660565b601f19601f83011660200192915050565b82818337506000910152565b6000611709611704846116bf565b6116a3565b90508281526020810184848401111561172457611724600080fd5b6111ae8482856116ea565b600082601f83011261174357611743600080fd5b81356109008482602086016116f6565b6000806000806080858703121561176c5761176c600080fd5b6000611778878761154d565b94505060206117898782880161154d565b935050604061179a878288016114f0565b925050606085013567ffffffffffffffff8111156117ba576117ba600080fd5b6117c68782880161172f565b91505092959194509250565b600080604083850312156117e8576117e8600080fd5b60006117f4858561154d565b925050602061158b8582860161154d565b634e487b7160e01b600052602260045260246000fd5b60028104600182168061182f57607f821691505b60208210810361184157611841611805565b50919050565b602181526000602082017f4552433732313a20617070726f76616c20746f2063757272656e74206f776e6581527f7200000000000000000000000000000000000000000000000000000000000000602082015291505b5060400190565b6020808252810161039881611847565b603d81526000602082017f4552433732313a20617070726f76652063616c6c6572206973206e6f7420746f81527f6b656e206f776e6572206f7220617070726f76656420666f7220616c6c0000006020820152915061189d565b60208082528101610398816118b4565b602d81526000602082017f4552433732313a2063616c6c6572206973206e6f7420746f6b656e206f776e6581527f72206f7220617070726f766564000000000000000000000000000000000000006020820152915061189d565b602080825281016103988161191e565b602b81526000602082017f455243373231456e756d657261626c653a206f776e657220696e646578206f7581527f74206f6620626f756e64730000000000000000000000000000000000000000006020820152915061189d565b6020808252810161039881611988565b602c81526000602082017f455243373231456e756d657261626c653a20676c6f62616c20696e646578206f81527f7574206f6620626f756e647300000000000000000000000000000000000000006020820152915061189d565b60208082528101610398816119f2565b634e487b7160e01b600052603260045260246000fd5b601881526000602082017f4552433732313a20696e76616c696420746f6b656e2049440000000000000000815291505b5060200190565b6020808252810161039881611a72565b602981526000602082017f4552433732313a2061646472657373207a65726f206973206e6f74206120766181527f6c6964206f776e657200000000000000000000000000000000000000000000006020820152915061189d565b6020808252810161039881611ab9565b601f81526000602082017f4f6e6c792061756374696f6e20636f6e7472616374732063616e206d696e740081529150611aa2565b6020808252810161039881611b23565b602681526000602082017f4f776e61626c653a206e6577206f776e657220697320746865207a65726f206181527f64647265737300000000000000000000000000000000000000000000000000006020820152915061189d565b6020808252810161039881611b67565b602581526000602082017f4552433732313a207472616e736665722066726f6d20696e636f72726563742081527f6f776e65720000000000000000000000000000000000000000000000000000006020820152915061189d565b6020808252810161039881611bd1565b602481526000602082017f4552433732313a207472616e7366657220746f20746865207a65726f2061646481527f72657373000000000000000000000000000000000000000000000000000000006020820152915061189d565b6020808252810161039881611c3b565b60208082527f4f776e61626c653a2063616c6c6572206973206e6f7420746865206f776e657291019081526000611aa2565b6020808252810161039881611ca5565b601981526000602082017f4552433732313a20617070726f766520746f2063616c6c65720000000000000081529150611aa2565b6020808252810161039881611ce7565b603281526000602082017f4552433732313a207472616e7366657220746f206e6f6e20455243373231526581527f63656976657220696d706c656d656e74657200000000000000000000000000006020820152915061189d565b6020808252810161039881611d2b565b6000611d9f825190565b611dad818560208601611483565b9290920192915050565b6000611dc38285611d95565b91506109008284611d95565b60808101611ddd828761152d565b611dea602083018661152d565b611df76040830185611595565b8181036060830152611e0981846114a7565b9695505050505050565b805161039881611428565b600060208284031215611e3357611e33600080fd5b60006109008484611e13565b603581526000602082017f455243373231456e756d657261626c653a20636f6e736563757469766520747281527f616e7366657273206e6f7420737570706f7274656400000000000000000000006020820152915061189d565b6020808252810161039881611e3f565b60208082527f4552433732313a206d696e7420746f20746865207a65726f206164647265737391019081526000611aa2565b6020808252810161039881611ea9565b601c81526000602082017f4552433732313a20746f6b656e20616c7265616479206d696e7465640000000081529150611aa2565b6020808252810161039881611eeb565b634e487b7160e01b600052601160045260246000fd5b8181038181111561039857610398611f2f565b634e487b7160e01b600052603160045260246000fdfea2646970667358221220ce8d8be59984576d36125480710bf03c71730e4e878e040daade3cd68f00549064736f6c63430008110033",
  "linkReferences": {},
  "deployedLinkReferences": {}
}